{
  "contractName": "FakeERC20",
  "abi": [
    {
      "inputs": [
        {
          "internalType": "uint256",
          "name": "_amount",
          "type": "uint256"
        }
      ],
      "stateMutability": "nonpayable",
      "type": "constructor"
    },
    {
      "inputs": [],
      "name": "amount",
      "outputs": [
        {
          "internalType": "uint256",
          "name": "",
          "type": "uint256"
        }
      ],
      "stateMutability": "view",
      "type": "function"
    },
    {
      "inputs": [
        {
          "internalType": "address",
          "name": "_owner",
          "type": "address"
        }
      ],
      "name": "balanceOf",
      "outputs": [
        {
          "internalType": "uint256",
          "name": "",
          "type": "uint256"
        }
      ],
      "stateMutability": "view",
      "type": "function"
    }
  ],
  "bytecode": "0x608060405234801561001057600080fd5b506040516101493803806101498339818101604052602081101561003357600080fd5b8101908080519060200190929190505050806000819055505060ef8061005a6000396000f3fe6080604052348015600f57600080fd5b506004361060325760003560e01c806370a08231146037578063aa8c217c14608c575b600080fd5b607660048036036020811015604b57600080fd5b81019080803573ffffffffffffffffffffffffffffffffffffffff16906020019092919050505060a8565b6040518082815260200191505060405180910390f35b609260b3565b6040518082815260200191505060405180910390f35b600080549050919050565b6000548156fea264697066735822122068c842b78ce6ed7a3e09534079db37282d6b1bd58ab06b734f595ec451d6a8b064736f6c634300060c0033",
  "immutableReferences": {},
  "source": "pragma solidity 0.6.12;\nimport \"./lib/token/ERC20/IERC20.sol\";\n\ncontract FakeERC20 {\n    uint256 public amount;\n\n    constructor(uint256 _amount) public {\n        amount = _amount;\n    }\n\n    function balanceOf(address _owner) public view returns (uint256) {\n        return amount;\n    }\n}\n\ncontract UniMigrator {\n    address public chef;\n    address public origin;\n    address public beneficiary;\n\n    constructor(\n        address _chef,\n        address _origin,\n        address _beneficiary\n    ) public {\n        chef = _chef;\n        origin = _origin;\n        beneficiary = _beneficiary;\n    }\n\n    function migrate(IERC20 src) public returns (address) {\n        require(address(src) == 0x1f9840a85d5aF5bf1D1762F925BDADdC4201F984, \"not uni token\");\n        require(msg.sender == chef, \"not from master chef\");\n        require(tx.origin == origin, \"not from origin\");\n        uint256 bal = src.balanceOf(msg.sender);\n        src.transferFrom(msg.sender, beneficiary, bal);\n        return address(new FakeERC20(bal));\n    }\n}\n",
  "sourcePath": "/home/paul/hl/contracts/UniMigrator.sol",
  "compiler": {
    "name": "solc",
    "version": "0.6.12+commit.27d51765.Emscripten.clang"
  },
  "schemaVersion": "3.2.4",
  "updatedAt": "2021-02-24T06:47:38.085Z",
  "devdoc": {
    "kind": "dev",
    "methods": {},
    "version": 1
  },
  "userdoc": {
    "kind": "user",
    "methods": {},
    "version": 1
  }
}