{
  "abi": [
    {
      "inputs": [
        {
          "internalType": "uint256",
          "name": "_amount",
          "type": "uint256"
        }
      ],
      "stateMutability": "nonpayable",
      "type": "constructor"
    },
    {
      "inputs": [],
      "name": "amount",
      "outputs": [
        {
          "internalType": "uint256",
          "name": "",
          "type": "uint256"
        }
      ],
      "stateMutability": "view",
      "type": "function"
    },
    {
      "inputs": [
        {
          "internalType": "address",
          "name": "_owner",
          "type": "address"
        }
      ],
      "name": "balanceOf",
      "outputs": [
        {
          "internalType": "uint256",
          "name": "",
          "type": "uint256"
        }
      ],
      "stateMutability": "view",
      "type": "function"
    }
  ],
  "bytecode": "608060405234801561001057600080fd5b506040516100fb3803806100fb8339818101604052602081101561003357600080fd5b505160005560b5806100466000396000f3fe6080604052348015600f57600080fd5b506004361060325760003560e01c806370a08231146037578063aa8c217c14606c575b600080fd5b605a60048036036020811015604b57600080fd5b50356001600160a01b03166072565b60408051918252519081900360200190f35b605a6079565b5060005490565b6000548156fea2646970667358221220716023483bcd4a3904c814dfc3c06cfd9bd6efc4983a1d210b7c1899ea2e495364736f6c634300060c0033",
  "bytecodeSha1": "5266b56238a5bdad9744677490511a429cc859fb",
  "compiler": {
    "evm_version": "istanbul",
    "optimizer": {
      "enabled": true,
      "runs": 200
    },
    "version": "0.6.12"
  },
  "contractName": "FakeERC20",
  "language": "Solidity",
  "natspec": {
    "kind": "dev",
    "methods": {},
    "version": 1
  },
  "opcodes": "PUSH1 0x80 PUSH1 0x40 MSTORE CALLVALUE DUP1 ISZERO PUSH1 0xF JUMPI PUSH1 0x0 DUP1 REVERT JUMPDEST POP PUSH1 0x4 CALLDATASIZE LT PUSH1 0x32 JUMPI PUSH1 0x0 CALLDATALOAD PUSH1 0xE0 SHR DUP1 PUSH4 0x70A08231 EQ PUSH1 0x37 JUMPI DUP1 PUSH4 0xAA8C217C EQ PUSH1 0x6C JUMPI JUMPDEST PUSH1 0x0 DUP1 REVERT JUMPDEST PUSH1 0x5A PUSH1 0x4 DUP1 CALLDATASIZE SUB PUSH1 0x20 DUP2 LT ISZERO PUSH1 0x4B JUMPI PUSH1 0x0 DUP1 REVERT JUMPDEST POP CALLDATALOAD PUSH1 0x1 PUSH1 0x1 PUSH1 0xA0 SHL SUB AND PUSH1 0x72 JUMP JUMPDEST PUSH1 0x40 DUP1 MLOAD SWAP2 DUP3 MSTORE MLOAD SWAP1 DUP2 SWAP1 SUB PUSH1 0x20 ADD SWAP1 RETURN JUMPDEST PUSH1 0x5A PUSH1 0x79 JUMP JUMPDEST POP PUSH1 0x0 SLOAD SWAP1 JUMP JUMPDEST PUSH1 0x0 SLOAD DUP2 JUMP INVALID LOG2 PUSH5 0x6970667358 0x22 SLT KECCAK256 PUSH18 0x6023483BCD4A3904C814DFC3C06CFD9BD6EF 0xC4 SWAP9 GASPRICE SAR 0x21 SIGNEXTEND PUSH29 0x1899EA2E495364736F6C634300060C0033000000000000000000000000 ",
  "sha1": "8cbf902b00dfce198df71c2b8b82166a79553649",
  "source": "pragma solidity 0.6.12;\nimport \"./lib/token/ERC20/IERC20.sol\";\n\ncontract FakeERC20 {\n    uint256 public amount;\n\n    constructor(uint256 _amount) public {\n        amount = _amount;\n    }\n\n    function balanceOf(address _owner) public view returns (uint256) {\n        return amount;\n    }\n}\n\ncontract UniMigrator {\n    address public chef;\n    address public origin;\n    address public beneficiary;\n\n    constructor(\n        address _chef,\n        address _origin,\n        address _beneficiary\n    ) public {\n        chef = _chef;\n        origin = _origin;\n        beneficiary = _beneficiary;\n    }\n\n    function migrate(IERC20 src) public returns (address) {\n        require(address(src) == 0x1f9840a85d5aF5bf1D1762F925BDADdC4201F984, \"not uni token\");\n        require(msg.sender == chef, \"not from master chef\");\n        require(tx.origin == origin, \"not from origin\");\n        uint256 bal = src.balanceOf(msg.sender);\n        src.transferFrom(msg.sender, beneficiary, bal);\n        return address(new FakeERC20(bal));\n    }\n}\n",
  "sourcePath": "contracts/UniMigrator.sol",
  "type": "contract"
}