{
  "abi": [
    {
      "inputs": [
        {
          "internalType": "contract IERC20",
          "name": "_sushi",
          "type": "address"
        },
        {
          "internalType": "uint256",
          "name": "_reductionPerBlock",
          "type": "uint256"
        }
      ],
      "stateMutability": "nonpayable",
      "type": "constructor"
    },
    {
      "anonymous": false,
      "inputs": [
        {
          "indexed": true,
          "internalType": "address",
          "name": "user",
          "type": "address"
        },
        {
          "indexed": false,
          "internalType": "uint256",
          "name": "amount",
          "type": "uint256"
        }
      ],
      "name": "Enter",
      "type": "event"
    },
    {
      "anonymous": false,
      "inputs": [
        {
          "indexed": true,
          "internalType": "address",
          "name": "user",
          "type": "address"
        },
        {
          "indexed": false,
          "internalType": "uint256",
          "name": "amount",
          "type": "uint256"
        }
      ],
      "name": "Leave",
      "type": "event"
    },
    {
      "inputs": [],
      "name": "accYIPerShare",
      "outputs": [
        {
          "internalType": "uint256",
          "name": "",
          "type": "uint256"
        }
      ],
      "stateMutability": "view",
      "type": "function"
    },
    {
      "inputs": [],
      "name": "ackYIBalance",
      "outputs": [
        {
          "internalType": "uint256",
          "name": "",
          "type": "uint256"
        }
      ],
      "stateMutability": "view",
      "type": "function"
    },
    {
      "inputs": [],
      "name": "cleanup",
      "outputs": [],
      "stateMutability": "nonpayable",
      "type": "function"
    },
    {
      "inputs": [
        {
          "internalType": "uint256",
          "name": "_amount",
          "type": "uint256"
        }
      ],
      "name": "enter",
      "outputs": [],
      "stateMutability": "nonpayable",
      "type": "function"
    },
    {
      "inputs": [
        {
          "internalType": "address",
          "name": "_user",
          "type": "address"
        }
      ],
      "name": "getPendingReward",
      "outputs": [
        {
          "internalType": "uint256",
          "name": "",
          "type": "uint256"
        }
      ],
      "stateMutability": "view",
      "type": "function"
    },
    {
      "inputs": [],
      "name": "lastMultiplerProcessBlock",
      "outputs": [
        {
          "internalType": "uint256",
          "name": "",
          "type": "uint256"
        }
      ],
      "stateMutability": "view",
      "type": "function"
    },
    {
      "inputs": [
        {
          "internalType": "uint256",
          "name": "_amount",
          "type": "uint256"
        }
      ],
      "name": "leave",
      "outputs": [],
      "stateMutability": "nonpayable",
      "type": "function"
    },
    {
      "inputs": [],
      "name": "multiplier",
      "outputs": [
        {
          "internalType": "uint256",
          "name": "",
          "type": "uint256"
        }
      ],
      "stateMutability": "view",
      "type": "function"
    },
    {
      "inputs": [],
      "name": "reductionPerBlock",
      "outputs": [
        {
          "internalType": "uint256",
          "name": "",
          "type": "uint256"
        }
      ],
      "stateMutability": "view",
      "type": "function"
    },
    {
      "inputs": [],
      "name": "sushi",
      "outputs": [
        {
          "internalType": "contract IERC20",
          "name": "",
          "type": "address"
        }
      ],
      "stateMutability": "view",
      "type": "function"
    },
    {
      "inputs": [],
      "name": "totalShares",
      "outputs": [
        {
          "internalType": "uint256",
          "name": "",
          "type": "uint256"
        }
      ],
      "stateMutability": "view",
      "type": "function"
    },
    {
      "inputs": [
        {
          "internalType": "address",
          "name": "",
          "type": "address"
        }
      ],
      "name": "userInfo",
      "outputs": [
        {
          "internalType": "uint256",
          "name": "amount",
          "type": "uint256"
        },
        {
          "internalType": "uint256",
          "name": "share",
          "type": "uint256"
        },
        {
          "internalType": "uint256",
          "name": "rewardDebt",
          "type": "uint256"
        }
      ],
      "stateMutability": "view",
      "type": "function"
    }
  ],
  "bytecode": "608060405234801561001057600080fd5b50604051610aed380380610aed8339818101604052604081101561003357600080fd5b508051602090910151600080546001600160a01b0319166001600160a01b03909316929092178255600155670de0b6b3a764000060025543600355610a6f90819061007e90396000f3fe608060405234801561001057600080fd5b50600436106100b45760003560e01c806367dfd4c91161007157806367dfd4c9146101735780637cae8f4514610190578063a59f3e0c14610198578063d955c66a146101b5578063dfc65547146101bd578063e6f7c7a4146101c5576100b4565b80630a087903146100b95780631959a002146100dd5780631b3ed722146101215780633a98ef391461013b5780633cecd719146101435780634df9d6ba1461014d575b600080fd5b6100c16101cd565b604080516001600160a01b039092168252519081900360200190f35b610103600480360360208110156100f357600080fd5b50356001600160a01b03166101dc565b60408051938452602084019290925282820152519081900360600190f35b6101296101fd565b60408051918252519081900360200190f35b610129610203565b61014b610209565b005b6101296004803603602081101561016357600080fd5b50356001600160a01b031661037e565b61014b6004803603602081101561018957600080fd5b50356103ca565b6101296104a5565b61014b600480360360208110156101ae57600080fd5b50356104ab565b610129610614565b61012961061a565b610129610620565b6000546001600160a01b031681565b60076020526000908152604090208054600182015460029092015490919083565b60025481565b60065481565b60006102206003544361062690919063ffffffff16565b600154909150670de0b6b3a7640000905b821561028257600183161561025f5761025c670de0b6b3a76400006102568484610671565b906106ca565b91505b610275670de0b6b3a76400006102568380610671565b9050600283049250610231565b6102a3670de0b6b3a76400006102568460025461067190919063ffffffff16565b60025543600355600654156103795760055460008054604080516370a0823160e01b8152306004820152905192936103389390926001600160a01b0316916370a08231916024808301926020929190829003018186803b15801561030657600080fd5b505afa15801561031a573d6000803e3d6000fd5b505050506040513d602081101561033057600080fd5b505190610626565b905061036461035b60065461025664e8d4a510008561067190919063ffffffff16565b6004549061070c565b600455600554610374908261070c565b600555505b505050565b6001600160a01b0381166000908152600760205260408120600281015460045460018301546103c392916103bd9164e8d4a51000916102569190610671565b90610626565b9392505050565b6103d2610209565b6103e4336103df3361037e565b610766565b3360009081526007602052604081208054600182015491929161040c91906102569086610671565b825490915061041b9084610626565b825560065461042a9082610626565b600655600182015461043c9082610626565b6001830181905560045461045b9164e8d4a51000916102569190610671565b600283015561046a3384610766565b60408051848152905133917f61a26f7c17d8780c095ccfa67e689a13ee4e06ddce3da18956369f4a396100e8919081900360200190a2505050565b60055481565b6104b3610209565b6104c0336103df3361037e565b60008054604080516323b872dd60e01b81523360048201523060248201526044810185905290516001600160a01b03909216926323b872dd926064808401936020939083900390910190829087803b15801561051b57600080fd5b505af115801561052f573d6000803e3d6000fd5b505050506040513d602081101561054557600080fd5b5050600554610554908261070c565b60055533600090815260076020526040812060025490919061058590670de0b6b3a764000090610256908690610671565b8254909150610594908461070c565b82556006546105a3908261070c565b60065560018201546105b5908261070c565b600183018190556004546105d49164e8d4a51000916102569190610671565b600283015560408051848152905133917f1fb48929215fc354244acea33112720ce5b7ba6912db70bb0149e77aa7c91ce1919081900360200190a2505050565b60035481565b60045481565b60015481565b600061066883836040518060400160405280601e81526020017f536166654d6174683a207375627472616374696f6e206f766572666c6f77000081525061091c565b90505b92915050565b6000826106805750600061066b565b8282028284828161068d57fe5b04146106685760405162461bcd60e51b8152600401808060200182810382526021815260200180610a196021913960400191505060405180910390fd5b600061066883836040518060400160405280601a81526020017f536166654d6174683a206469766973696f6e206279207a65726f0000000000008152506109b3565b600082820183811015610668576040805162461bcd60e51b815260206004820152601b60248201527f536166654d6174683a206164646974696f6e206f766572666c6f770000000000604482015290519081900360640190fd5b60008054604080516370a0823160e01b815230600482015290516001600160a01b03909216916370a0823191602480820192602092909190829003018186803b1580156107b257600080fd5b505afa1580156107c6573d6000803e3d6000fd5b505050506040513d60208110156107dc57600080fd5b505190508082111561088257600080546040805163a9059cbb60e01b81526001600160a01b038781166004830152602482018690529151919092169263a9059cbb92604480820193602093909283900390910190829087803b15801561084157600080fd5b505af1158015610855573d6000803e3d6000fd5b505050506040513d602081101561086b57600080fd5b505060055461087a9082610626565b600555610379565b600080546040805163a9059cbb60e01b81526001600160a01b038781166004830152602482018790529151919092169263a9059cbb92604480820193602093909283900390910190829087803b1580156108db57600080fd5b505af11580156108ef573d6000803e3d6000fd5b505050506040513d602081101561090557600080fd5b50506005546109149083610626565b600555505050565b600081848411156109ab5760405162461bcd60e51b81526004018080602001828103825283818151815260200191508051906020019080838360005b83811015610970578181015183820152602001610958565b50505050905090810190601f16801561099d5780820380516001836020036101000a031916815260200191505b509250505060405180910390fd5b505050900390565b60008183610a025760405162461bcd60e51b8152602060048201818152835160248401528351909283926044909101919085019080838360008315610970578181015183820152602001610958565b506000838581610a0e57fe5b049594505050505056fe536166654d6174683a206d756c7469706c69636174696f6e206f766572666c6f77a2646970667358221220cbaf3f5389ce17f6d82d48ef02d5c5d13572ce05c584d97183ce8912d035252264736f6c634300060c0033",
  "bytecodeSha1": "2a8a5a5d797cc1fb339ab77b9039e746c6bf58ce",
  "compiler": {
    "evm_version": "istanbul",
    "optimizer": {
      "enabled": true,
      "runs": 200
    },
    "version": "0.6.12"
  },
  "contractName": "YIExchange",
  "language": "Solidity",
  "natspec": {
    "kind": "dev",
    "methods": {},
    "version": 1
  },
  "opcodes": "PUSH1 0x80 PUSH1 0x40 MSTORE CALLVALUE DUP1 ISZERO PUSH2 0x10 JUMPI PUSH1 0x0 DUP1 REVERT JUMPDEST POP PUSH1 0x4 CALLDATASIZE LT PUSH2 0xB4 JUMPI PUSH1 0x0 CALLDATALOAD PUSH1 0xE0 SHR DUP1 PUSH4 0x67DFD4C9 GT PUSH2 0x71 JUMPI DUP1 PUSH4 0x67DFD4C9 EQ PUSH2 0x173 JUMPI DUP1 PUSH4 0x7CAE8F45 EQ PUSH2 0x190 JUMPI DUP1 PUSH4 0xA59F3E0C EQ PUSH2 0x198 JUMPI DUP1 PUSH4 0xD955C66A EQ PUSH2 0x1B5 JUMPI DUP1 PUSH4 0xDFC65547 EQ PUSH2 0x1BD JUMPI DUP1 PUSH4 0xE6F7C7A4 EQ PUSH2 0x1C5 JUMPI PUSH2 0xB4 JUMP JUMPDEST DUP1 PUSH4 0xA087903 EQ PUSH2 0xB9 JUMPI DUP1 PUSH4 0x1959A002 EQ PUSH2 0xDD JUMPI DUP1 PUSH4 0x1B3ED722 EQ PUSH2 0x121 JUMPI DUP1 PUSH4 0x3A98EF39 EQ PUSH2 0x13B JUMPI DUP1 PUSH4 0x3CECD719 EQ PUSH2 0x143 JUMPI DUP1 PUSH4 0x4DF9D6BA EQ PUSH2 0x14D JUMPI JUMPDEST PUSH1 0x0 DUP1 REVERT JUMPDEST PUSH2 0xC1 PUSH2 0x1CD JUMP JUMPDEST PUSH1 0x40 DUP1 MLOAD PUSH1 0x1 PUSH1 0x1 PUSH1 0xA0 SHL SUB SWAP1 SWAP3 AND DUP3 MSTORE MLOAD SWAP1 DUP2 SWAP1 SUB PUSH1 0x20 ADD SWAP1 RETURN JUMPDEST PUSH2 0x103 PUSH1 0x4 DUP1 CALLDATASIZE SUB PUSH1 0x20 DUP2 LT ISZERO PUSH2 0xF3 JUMPI PUSH1 0x0 DUP1 REVERT JUMPDEST POP CALLDATALOAD PUSH1 0x1 PUSH1 0x1 PUSH1 0xA0 SHL SUB AND PUSH2 0x1DC JUMP JUMPDEST PUSH1 0x40 DUP1 MLOAD SWAP4 DUP5 MSTORE PUSH1 0x20 DUP5 ADD SWAP3 SWAP1 SWAP3 MSTORE DUP3 DUP3 ADD MSTORE MLOAD SWAP1 DUP2 SWAP1 SUB PUSH1 0x60 ADD SWAP1 RETURN JUMPDEST PUSH2 0x129 PUSH2 0x1FD JUMP JUMPDEST PUSH1 0x40 DUP1 MLOAD SWAP2 DUP3 MSTORE MLOAD SWAP1 DUP2 SWAP1 SUB PUSH1 0x20 ADD SWAP1 RETURN JUMPDEST PUSH2 0x129 PUSH2 0x203 JUMP JUMPDEST PUSH2 0x14B PUSH2 0x209 JUMP JUMPDEST STOP JUMPDEST PUSH2 0x129 PUSH1 0x4 DUP1 CALLDATASIZE SUB PUSH1 0x20 DUP2 LT ISZERO PUSH2 0x163 JUMPI PUSH1 0x0 DUP1 REVERT JUMPDEST POP CALLDATALOAD PUSH1 0x1 PUSH1 0x1 PUSH1 0xA0 SHL SUB AND PUSH2 0x37E JUMP JUMPDEST PUSH2 0x14B PUSH1 0x4 DUP1 CALLDATASIZE SUB PUSH1 0x20 DUP2 LT ISZERO PUSH2 0x189 JUMPI PUSH1 0x0 DUP1 REVERT JUMPDEST POP CALLDATALOAD PUSH2 0x3CA JUMP JUMPDEST PUSH2 0x129 PUSH2 0x4A5 JUMP JUMPDEST PUSH2 0x14B PUSH1 0x4 DUP1 CALLDATASIZE SUB PUSH1 0x20 DUP2 LT ISZERO PUSH2 0x1AE JUMPI PUSH1 0x0 DUP1 REVERT JUMPDEST POP CALLDATALOAD PUSH2 0x4AB JUMP JUMPDEST PUSH2 0x129 PUSH2 0x614 JUMP JUMPDEST PUSH2 0x129 PUSH2 0x61A JUMP JUMPDEST PUSH2 0x129 PUSH2 0x620 JUMP JUMPDEST PUSH1 0x0 SLOAD PUSH1 0x1 PUSH1 0x1 PUSH1 0xA0 SHL SUB AND DUP2 JUMP JUMPDEST PUSH1 0x7 PUSH1 0x20 MSTORE PUSH1 0x0 SWAP1 DUP2 MSTORE PUSH1 0x40 SWAP1 KECCAK256 DUP1 SLOAD PUSH1 0x1 DUP3 ADD SLOAD PUSH1 0x2 SWAP1 SWAP3 ADD SLOAD SWAP1 SWAP2 SWAP1 DUP4 JUMP JUMPDEST PUSH1 0x2 SLOAD DUP2 JUMP JUMPDEST PUSH1 0x6 SLOAD DUP2 JUMP JUMPDEST PUSH1 0x0 PUSH2 0x220 PUSH1 0x3 SLOAD NUMBER PUSH2 0x626 SWAP1 SWAP2 SWAP1 PUSH4 0xFFFFFFFF AND JUMP JUMPDEST PUSH1 0x1 SLOAD SWAP1 SWAP2 POP PUSH8 0xDE0B6B3A7640000 SWAP1 JUMPDEST DUP3 ISZERO PUSH2 0x282 JUMPI PUSH1 0x1 DUP4 AND ISZERO PUSH2 0x25F JUMPI PUSH2 0x25C PUSH8 0xDE0B6B3A7640000 PUSH2 0x256 DUP5 DUP5 PUSH2 0x671 JUMP JUMPDEST SWAP1 PUSH2 0x6CA JUMP JUMPDEST SWAP2 POP JUMPDEST PUSH2 0x275 PUSH8 0xDE0B6B3A7640000 PUSH2 0x256 DUP4 DUP1 PUSH2 0x671 JUMP JUMPDEST SWAP1 POP PUSH1 0x2 DUP4 DIV SWAP3 POP PUSH2 0x231 JUMP JUMPDEST PUSH2 0x2A3 PUSH8 0xDE0B6B3A7640000 PUSH2 0x256 DUP5 PUSH1 0x2 SLOAD PUSH2 0x671 SWAP1 SWAP2 SWAP1 PUSH4 0xFFFFFFFF AND JUMP JUMPDEST PUSH1 0x2 SSTORE NUMBER PUSH1 0x3 SSTORE PUSH1 0x6 SLOAD ISZERO PUSH2 0x379 JUMPI PUSH1 0x5 SLOAD PUSH1 0x0 DUP1 SLOAD PUSH1 0x40 DUP1 MLOAD PUSH4 0x70A08231 PUSH1 0xE0 SHL DUP2 MSTORE ADDRESS PUSH1 0x4 DUP3 ADD MSTORE SWAP1 MLOAD SWAP3 SWAP4 PUSH2 0x338 SWAP4 SWAP1 SWAP3 PUSH1 0x1 PUSH1 0x1 PUSH1 0xA0 SHL SUB AND SWAP2 PUSH4 0x70A08231 SWAP2 PUSH1 0x24 DUP1 DUP4 ADD SWAP3 PUSH1 0x20 SWAP3 SWAP2 SWAP1 DUP3 SWAP1 SUB ADD DUP2 DUP7 DUP1 EXTCODESIZE ISZERO DUP1 ISZERO PUSH2 0x306 JUMPI PUSH1 0x0 DUP1 REVERT JUMPDEST POP GAS STATICCALL ISZERO DUP1 ISZERO PUSH2 0x31A JUMPI RETURNDATASIZE PUSH1 0x0 DUP1 RETURNDATACOPY RETURNDATASIZE PUSH1 0x0 REVERT JUMPDEST POP POP POP POP PUSH1 0x40 MLOAD RETURNDATASIZE PUSH1 0x20 DUP2 LT ISZERO PUSH2 0x330 JUMPI PUSH1 0x0 DUP1 REVERT JUMPDEST POP MLOAD SWAP1 PUSH2 0x626 JUMP JUMPDEST SWAP1 POP PUSH2 0x364 PUSH2 0x35B PUSH1 0x6 SLOAD PUSH2 0x256 PUSH5 0xE8D4A51000 DUP6 PUSH2 0x671 SWAP1 SWAP2 SWAP1 PUSH4 0xFFFFFFFF AND JUMP JUMPDEST PUSH1 0x4 SLOAD SWAP1 PUSH2 0x70C JUMP JUMPDEST PUSH1 0x4 SSTORE PUSH1 0x5 SLOAD PUSH2 0x374 SWAP1 DUP3 PUSH2 0x70C JUMP JUMPDEST PUSH1 0x5 SSTORE POP JUMPDEST POP POP POP JUMP JUMPDEST PUSH1 0x1 PUSH1 0x1 PUSH1 0xA0 SHL SUB DUP2 AND PUSH1 0x0 SWAP1 DUP2 MSTORE PUSH1 0x7 PUSH1 0x20 MSTORE PUSH1 0x40 DUP2 KECCAK256 PUSH1 0x2 DUP2 ADD SLOAD PUSH1 0x4 SLOAD PUSH1 0x1 DUP4 ADD SLOAD PUSH2 0x3C3 SWAP3 SWAP2 PUSH2 0x3BD SWAP2 PUSH5 0xE8D4A51000 SWAP2 PUSH2 0x256 SWAP2 SWAP1 PUSH2 0x671 JUMP JUMPDEST SWAP1 PUSH2 0x626 JUMP JUMPDEST SWAP4 SWAP3 POP POP POP JUMP JUMPDEST PUSH2 0x3D2 PUSH2 0x209 JUMP JUMPDEST PUSH2 0x3E4 CALLER PUSH2 0x3DF CALLER PUSH2 0x37E JUMP JUMPDEST PUSH2 0x766 JUMP JUMPDEST CALLER PUSH1 0x0 SWAP1 DUP2 MSTORE PUSH1 0x7 PUSH1 0x20 MSTORE PUSH1 0x40 DUP2 KECCAK256 DUP1 SLOAD PUSH1 0x1 DUP3 ADD SLOAD SWAP2 SWAP3 SWAP2 PUSH2 0x40C SWAP2 SWAP1 PUSH2 0x256 SWAP1 DUP7 PUSH2 0x671 JUMP JUMPDEST DUP3 SLOAD SWAP1 SWAP2 POP PUSH2 0x41B SWAP1 DUP5 PUSH2 0x626 JUMP JUMPDEST DUP3 SSTORE PUSH1 0x6 SLOAD PUSH2 0x42A SWAP1 DUP3 PUSH2 0x626 JUMP JUMPDEST PUSH1 0x6 SSTORE PUSH1 0x1 DUP3 ADD SLOAD PUSH2 0x43C SWAP1 DUP3 PUSH2 0x626 JUMP JUMPDEST PUSH1 0x1 DUP4 ADD DUP2 SWAP1 SSTORE PUSH1 0x4 SLOAD PUSH2 0x45B SWAP2 PUSH5 0xE8D4A51000 SWAP2 PUSH2 0x256 SWAP2 SWAP1 PUSH2 0x671 JUMP JUMPDEST PUSH1 0x2 DUP4 ADD SSTORE PUSH2 0x46A CALLER DUP5 PUSH2 0x766 JUMP JUMPDEST PUSH1 0x40 DUP1 MLOAD DUP5 DUP2 MSTORE SWAP1 MLOAD CALLER SWAP2 PUSH32 0x61A26F7C17D8780C095CCFA67E689A13EE4E06DDCE3DA18956369F4A396100E8 SWAP2 SWAP1 DUP2 SWAP1 SUB PUSH1 0x20 ADD SWAP1 LOG2 POP POP POP JUMP JUMPDEST PUSH1 0x5 SLOAD DUP2 JUMP JUMPDEST PUSH2 0x4B3 PUSH2 0x209 JUMP JUMPDEST PUSH2 0x4C0 CALLER PUSH2 0x3DF CALLER PUSH2 0x37E JUMP JUMPDEST PUSH1 0x0 DUP1 SLOAD PUSH1 0x40 DUP1 MLOAD PUSH4 0x23B872DD PUSH1 0xE0 SHL DUP2 MSTORE CALLER PUSH1 0x4 DUP3 ADD MSTORE ADDRESS PUSH1 0x24 DUP3 ADD MSTORE PUSH1 0x44 DUP2 ADD DUP6 SWAP1 MSTORE SWAP1 MLOAD PUSH1 0x1 PUSH1 0x1 PUSH1 0xA0 SHL SUB SWAP1 SWAP3 AND SWAP3 PUSH4 0x23B872DD SWAP3 PUSH1 0x64 DUP1 DUP5 ADD SWAP4 PUSH1 0x20 SWAP4 SWAP1 DUP4 SWAP1 SUB SWAP1 SWAP2 ADD SWAP1 DUP3 SWAP1 DUP8 DUP1 EXTCODESIZE ISZERO DUP1 ISZERO PUSH2 0x51B JUMPI PUSH1 0x0 DUP1 REVERT JUMPDEST POP GAS CALL ISZERO DUP1 ISZERO PUSH2 0x52F JUMPI RETURNDATASIZE PUSH1 0x0 DUP1 RETURNDATACOPY RETURNDATASIZE PUSH1 0x0 REVERT JUMPDEST POP POP POP POP PUSH1 0x40 MLOAD RETURNDATASIZE PUSH1 0x20 DUP2 LT ISZERO PUSH2 0x545 JUMPI PUSH1 0x0 DUP1 REVERT JUMPDEST POP POP PUSH1 0x5 SLOAD PUSH2 0x554 SWAP1 DUP3 PUSH2 0x70C JUMP JUMPDEST PUSH1 0x5 SSTORE CALLER PUSH1 0x0 SWAP1 DUP2 MSTORE PUSH1 0x7 PUSH1 0x20 MSTORE PUSH1 0x40 DUP2 KECCAK256 PUSH1 0x2 SLOAD SWAP1 SWAP2 SWAP1 PUSH2 0x585 SWAP1 PUSH8 0xDE0B6B3A7640000 SWAP1 PUSH2 0x256 SWAP1 DUP7 SWAP1 PUSH2 0x671 JUMP JUMPDEST DUP3 SLOAD SWAP1 SWAP2 POP PUSH2 0x594 SWAP1 DUP5 PUSH2 0x70C JUMP JUMPDEST DUP3 SSTORE PUSH1 0x6 SLOAD PUSH2 0x5A3 SWAP1 DUP3 PUSH2 0x70C JUMP JUMPDEST PUSH1 0x6 SSTORE PUSH1 0x1 DUP3 ADD SLOAD PUSH2 0x5B5 SWAP1 DUP3 PUSH2 0x70C JUMP JUMPDEST PUSH1 0x1 DUP4 ADD DUP2 SWAP1 SSTORE PUSH1 0x4 SLOAD PUSH2 0x5D4 SWAP2 PUSH5 0xE8D4A51000 SWAP2 PUSH2 0x256 SWAP2 SWAP1 PUSH2 0x671 JUMP JUMPDEST PUSH1 0x2 DUP4 ADD SSTORE PUSH1 0x40 DUP1 MLOAD DUP5 DUP2 MSTORE SWAP1 MLOAD CALLER SWAP2 PUSH32 0x1FB48929215FC354244ACEA33112720CE5B7BA6912DB70BB0149E77AA7C91CE1 SWAP2 SWAP1 DUP2 SWAP1 SUB PUSH1 0x20 ADD SWAP1 LOG2 POP POP POP JUMP JUMPDEST PUSH1 0x3 SLOAD DUP2 JUMP JUMPDEST PUSH1 0x4 SLOAD DUP2 JUMP JUMPDEST PUSH1 0x1 SLOAD DUP2 JUMP JUMPDEST PUSH1 0x0 PUSH2 0x668 DUP4 DUP4 PUSH1 0x40 MLOAD DUP1 PUSH1 0x40 ADD PUSH1 0x40 MSTORE DUP1 PUSH1 0x1E DUP2 MSTORE PUSH1 0x20 ADD PUSH32 0x536166654D6174683A207375627472616374696F6E206F766572666C6F770000 DUP2 MSTORE POP PUSH2 0x91C JUMP JUMPDEST SWAP1 POP JUMPDEST SWAP3 SWAP2 POP POP JUMP JUMPDEST PUSH1 0x0 DUP3 PUSH2 0x680 JUMPI POP PUSH1 0x0 PUSH2 0x66B JUMP JUMPDEST DUP3 DUP3 MUL DUP3 DUP5 DUP3 DUP2 PUSH2 0x68D JUMPI INVALID JUMPDEST DIV EQ PUSH2 0x668 JUMPI PUSH1 0x40 MLOAD PUSH3 0x461BCD PUSH1 0xE5 SHL DUP2 MSTORE PUSH1 0x4 ADD DUP1 DUP1 PUSH1 0x20 ADD DUP3 DUP2 SUB DUP3 MSTORE PUSH1 0x21 DUP2 MSTORE PUSH1 0x20 ADD DUP1 PUSH2 0xA19 PUSH1 0x21 SWAP2 CODECOPY PUSH1 0x40 ADD SWAP2 POP POP PUSH1 0x40 MLOAD DUP1 SWAP2 SUB SWAP1 REVERT JUMPDEST PUSH1 0x0 PUSH2 0x668 DUP4 DUP4 PUSH1 0x40 MLOAD DUP1 PUSH1 0x40 ADD PUSH1 0x40 MSTORE DUP1 PUSH1 0x1A DUP2 MSTORE PUSH1 0x20 ADD PUSH32 0x536166654D6174683A206469766973696F6E206279207A65726F000000000000 DUP2 MSTORE POP PUSH2 0x9B3 JUMP JUMPDEST PUSH1 0x0 DUP3 DUP3 ADD DUP4 DUP2 LT ISZERO PUSH2 0x668 JUMPI PUSH1 0x40 DUP1 MLOAD PUSH3 0x461BCD PUSH1 0xE5 SHL DUP2 MSTORE PUSH1 0x20 PUSH1 0x4 DUP3 ADD MSTORE PUSH1 0x1B PUSH1 0x24 DUP3 ADD MSTORE PUSH32 0x536166654D6174683A206164646974696F6E206F766572666C6F770000000000 PUSH1 0x44 DUP3 ADD MSTORE SWAP1 MLOAD SWAP1 DUP2 SWAP1 SUB PUSH1 0x64 ADD SWAP1 REVERT JUMPDEST PUSH1 0x0 DUP1 SLOAD PUSH1 0x40 DUP1 MLOAD PUSH4 0x70A08231 PUSH1 0xE0 SHL DUP2 MSTORE ADDRESS PUSH1 0x4 DUP3 ADD MSTORE SWAP1 MLOAD PUSH1 0x1 PUSH1 0x1 PUSH1 0xA0 SHL SUB SWAP1 SWAP3 AND SWAP2 PUSH4 0x70A08231 SWAP2 PUSH1 0x24 DUP1 DUP3 ADD SWAP3 PUSH1 0x20 SWAP3 SWAP1 SWAP2 SWAP1 DUP3 SWAP1 SUB ADD DUP2 DUP7 DUP1 EXTCODESIZE ISZERO DUP1 ISZERO PUSH2 0x7B2 JUMPI PUSH1 0x0 DUP1 REVERT JUMPDEST POP GAS STATICCALL ISZERO DUP1 ISZERO PUSH2 0x7C6 JUMPI RETURNDATASIZE PUSH1 0x0 DUP1 RETURNDATACOPY RETURNDATASIZE PUSH1 0x0 REVERT JUMPDEST POP POP POP POP PUSH1 0x40 MLOAD RETURNDATASIZE PUSH1 0x20 DUP2 LT ISZERO PUSH2 0x7DC JUMPI PUSH1 0x0 DUP1 REVERT JUMPDEST POP MLOAD SWAP1 POP DUP1 DUP3 GT ISZERO PUSH2 0x882 JUMPI PUSH1 0x0 DUP1 SLOAD PUSH1 0x40 DUP1 MLOAD PUSH4 0xA9059CBB PUSH1 0xE0 SHL DUP2 MSTORE PUSH1 0x1 PUSH1 0x1 PUSH1 0xA0 SHL SUB DUP8 DUP2 AND PUSH1 0x4 DUP4 ADD MSTORE PUSH1 0x24 DUP3 ADD DUP7 SWAP1 MSTORE SWAP2 MLOAD SWAP2 SWAP1 SWAP3 AND SWAP3 PUSH4 0xA9059CBB SWAP3 PUSH1 0x44 DUP1 DUP3 ADD SWAP4 PUSH1 0x20 SWAP4 SWAP1 SWAP3 DUP4 SWAP1 SUB SWAP1 SWAP2 ADD SWAP1 DUP3 SWAP1 DUP8 DUP1 EXTCODESIZE ISZERO DUP1 ISZERO PUSH2 0x841 JUMPI PUSH1 0x0 DUP1 REVERT JUMPDEST POP GAS CALL ISZERO DUP1 ISZERO PUSH2 0x855 JUMPI RETURNDATASIZE PUSH1 0x0 DUP1 RETURNDATACOPY RETURNDATASIZE PUSH1 0x0 REVERT JUMPDEST POP POP POP POP PUSH1 0x40 MLOAD RETURNDATASIZE PUSH1 0x20 DUP2 LT ISZERO PUSH2 0x86B JUMPI PUSH1 0x0 DUP1 REVERT JUMPDEST POP POP PUSH1 0x5 SLOAD PUSH2 0x87A SWAP1 DUP3 PUSH2 0x626 JUMP JUMPDEST PUSH1 0x5 SSTORE PUSH2 0x379 JUMP JUMPDEST PUSH1 0x0 DUP1 SLOAD PUSH1 0x40 DUP1 MLOAD PUSH4 0xA9059CBB PUSH1 0xE0 SHL DUP2 MSTORE PUSH1 0x1 PUSH1 0x1 PUSH1 0xA0 SHL SUB DUP8 DUP2 AND PUSH1 0x4 DUP4 ADD MSTORE PUSH1 0x24 DUP3 ADD DUP8 SWAP1 MSTORE SWAP2 MLOAD SWAP2 SWAP1 SWAP3 AND SWAP3 PUSH4 0xA9059CBB SWAP3 PUSH1 0x44 DUP1 DUP3 ADD SWAP4 PUSH1 0x20 SWAP4 SWAP1 SWAP3 DUP4 SWAP1 SUB SWAP1 SWAP2 ADD SWAP1 DUP3 SWAP1 DUP8 DUP1 EXTCODESIZE ISZERO DUP1 ISZERO PUSH2 0x8DB JUMPI PUSH1 0x0 DUP1 REVERT JUMPDEST POP GAS CALL ISZERO DUP1 ISZERO PUSH2 0x8EF JUMPI RETURNDATASIZE PUSH1 0x0 DUP1 RETURNDATACOPY RETURNDATASIZE PUSH1 0x0 REVERT JUMPDEST POP POP POP POP PUSH1 0x40 MLOAD RETURNDATASIZE PUSH1 0x20 DUP2 LT ISZERO PUSH2 0x905 JUMPI PUSH1 0x0 DUP1 REVERT JUMPDEST POP POP PUSH1 0x5 SLOAD PUSH2 0x914 SWAP1 DUP4 PUSH2 0x626 JUMP JUMPDEST PUSH1 0x5 SSTORE POP POP POP JUMP JUMPDEST PUSH1 0x0 DUP2 DUP5 DUP5 GT ISZERO PUSH2 0x9AB JUMPI PUSH1 0x40 MLOAD PUSH3 0x461BCD PUSH1 0xE5 SHL DUP2 MSTORE PUSH1 0x4 ADD DUP1 DUP1 PUSH1 0x20 ADD DUP3 DUP2 SUB DUP3 MSTORE DUP4 DUP2 DUP2 MLOAD DUP2 MSTORE PUSH1 0x20 ADD SWAP2 POP DUP1 MLOAD SWAP1 PUSH1 0x20 ADD SWAP1 DUP1 DUP4 DUP4 PUSH1 0x0 JUMPDEST DUP4 DUP2 LT ISZERO PUSH2 0x970 JUMPI DUP2 DUP2 ADD MLOAD DUP4 DUP3 ADD MSTORE PUSH1 0x20 ADD PUSH2 0x958 JUMP JUMPDEST POP POP POP POP SWAP1 POP SWAP1 DUP2 ADD SWAP1 PUSH1 0x1F AND DUP1 ISZERO PUSH2 0x99D JUMPI DUP1 DUP3 SUB DUP1 MLOAD PUSH1 0x1 DUP4 PUSH1 0x20 SUB PUSH2 0x100 EXP SUB NOT AND DUP2 MSTORE PUSH1 0x20 ADD SWAP2 POP JUMPDEST POP SWAP3 POP POP POP PUSH1 0x40 MLOAD DUP1 SWAP2 SUB SWAP1 REVERT JUMPDEST POP POP POP SWAP1 SUB SWAP1 JUMP JUMPDEST PUSH1 0x0 DUP2 DUP4 PUSH2 0xA02 JUMPI PUSH1 0x40 MLOAD PUSH3 0x461BCD PUSH1 0xE5 SHL DUP2 MSTORE PUSH1 0x20 PUSH1 0x4 DUP3 ADD DUP2 DUP2 MSTORE DUP4 MLOAD PUSH1 0x24 DUP5 ADD MSTORE DUP4 MLOAD SWAP1 SWAP3 DUP4 SWAP3 PUSH1 0x44 SWAP1 SWAP2 ADD SWAP2 SWAP1 DUP6 ADD SWAP1 DUP1 DUP4 DUP4 PUSH1 0x0 DUP4 ISZERO PUSH2 0x970 JUMPI DUP2 DUP2 ADD MLOAD DUP4 DUP3 ADD MSTORE PUSH1 0x20 ADD PUSH2 0x958 JUMP JUMPDEST POP PUSH1 0x0 DUP4 DUP6 DUP2 PUSH2 0xA0E JUMPI INVALID JUMPDEST DIV SWAP6 SWAP5 POP POP POP POP POP JUMP INVALID MSTORE8 PUSH2 0x6665 0x4D PUSH2 0x7468 GASPRICE KECCAK256 PUSH14 0x756C7469706C69636174696F6E20 PUSH16 0x766572666C6F77A26469706673582212 KECCAK256 0xCB 0xAF EXTCODEHASH MSTORE8 DUP10 0xCE OR 0xF6 0xD8 0x2D 0x48 0xEF MUL 0xD5 0xC5 0xD1 CALLDATALOAD PUSH19 0xCE05C584D97183CE8912D035252264736F6C63 NUMBER STOP MOD 0xC STOP CALLER ",
  "sha1": "c830dadede9d2d7e32d13cba694bbdd27a8277b0",
  "source": "pragma solidity 0.6.12;\n\nimport \"./lib/token/ERC20/IERC20.sol\";\nimport \"./lib/math/SafeMath.sol\";\n\n\ncontract YIExchange {\n    using SafeMath for uint256;\n    event Enter(address indexed user, uint256 amount);\n    event Leave(address indexed user, uint256 amount);\n\n    IERC20 public sushi;\n\n    uint256 public reductionPerBlock;\n    uint256 public multiplier;\n    uint256 public lastMultiplerProcessBlock;\n\n    uint256 public accYIPerShare;\n    uint256 public ackYIBalance;\n    uint256 public totalShares;\n\n    struct UserInfo {\n        uint256 amount; // YI stake amount\n        uint256 share;\n        uint256 rewardDebt;\n    }\n\n    mapping (address => UserInfo) public userInfo;\n\n    constructor(IERC20 _sushi, uint256 _reductionPerBlock) public {\n        sushi = _sushi;\n        reductionPerBlock = _reductionPerBlock; // Use 999999390274979584 for 10% per month\n        multiplier = 1e18; // Should be good for 20 years\n        lastMultiplerProcessBlock = block.number;\n    }\n\n    // Clean the restaurant. Called whenever someone enters or leaves.\n    function cleanup() public {\n        // Update multiplier\n        uint256 reductionTimes = block.number.sub(lastMultiplerProcessBlock);\n        uint256 fraction = 1e18;\n        uint256 acc = reductionPerBlock;\n        while (reductionTimes > 0) {\n            if (reductionTimes & 1 != 0) {\n                fraction = fraction.mul(acc).div(1e18);\n            }\n            acc = acc.mul(acc).div(1e18);\n            reductionTimes = reductionTimes / 2;\n        }\n        multiplier = multiplier.mul(fraction).div(1e18);\n        lastMultiplerProcessBlock = block.number;\n        // Update accYIPerShare / ackYIBalance\n        if (totalShares > 0) {\n            uint256 additionalYI = sushi.balanceOf(address(this)).sub(ackYIBalance);\n            accYIPerShare = accYIPerShare.add(additionalYI.mul(1e12).div(totalShares));\n            ackYIBalance = ackYIBalance.add(additionalYI);\n        }\n    }\n\n    // Get user pending reward. May be outdated until someone calls cleanup.\n    function getPendingReward(address _user) public view returns (uint256) {\n        UserInfo storage user = userInfo[_user];\n        return user.share.mul(accYIPerShare).div(1e12).sub(user.rewardDebt);\n    }\n\n    // Enter the restaurant. Pay some YIs. Earn some shares.\n    function enter(uint256 _amount) public {\n        cleanup();\n        safeYITransfer(msg.sender, getPendingReward(msg.sender));\n        sushi.transferFrom(msg.sender, address(this), _amount);\n        ackYIBalance = ackYIBalance.add(_amount);\n        UserInfo storage user = userInfo[msg.sender];\n        uint256 moreShare = _amount.mul(multiplier).div(1e18);\n        user.amount = user.amount.add(_amount);\n        totalShares = totalShares.add(moreShare);\n        user.share = user.share.add(moreShare);\n        user.rewardDebt = user.share.mul(accYIPerShare).div(1e12);\n        emit Enter(msg.sender, _amount);\n    }\n\n    // Leave the restaurant. Claim back your YIs.\n    function leave(uint256 _amount) public {\n        cleanup();\n        safeYITransfer(msg.sender, getPendingReward(msg.sender));\n        UserInfo storage user = userInfo[msg.sender];\n        uint256 lessShare = user.share.mul(_amount).div(user.amount);\n        user.amount = user.amount.sub(_amount);\n        totalShares = totalShares.sub(lessShare);\n        user.share = user.share.sub(lessShare);\n        user.rewardDebt = user.share.mul(accYIPerShare).div(1e12);\n        safeYITransfer(msg.sender, _amount);\n        emit Leave(msg.sender, _amount);\n    }\n\n    // Safe sushi transfer function, just in case if rounding error causes pool to not have enough YIs.\n    function safeYITransfer(address _to, uint256 _amount) internal {\n        uint256 sushiBal = sushi.balanceOf(address(this));\n        if (_amount > sushiBal) {\n            sushi.transfer(_to, sushiBal);\n            ackYIBalance = ackYIBalance.sub(sushiBal);\n        } else {\n            sushi.transfer(_to, _amount);\n            ackYIBalance = ackYIBalance.sub(_amount);\n        }\n    }\n}\n",
  "sourcePath": "contracts/YIExchange.sol",
  "type": "contract"
}